{
	"IoT/iot.sol": {
		"MessageContract": {
			"abi": [
				{
					"inputs": [
						{
							"internalType": "int8",
							"name": "newOn",
							"type": "int8"
						}
					],
					"stateMutability": "nonpayable",
					"type": "constructor"
				},
				{
					"anonymous": false,
					"inputs": [
						{
							"indexed": true,
							"internalType": "address",
							"name": "sender",
							"type": "address"
						},
						{
							"indexed": false,
							"internalType": "int8",
							"name": "newMessage",
							"type": "int8"
						}
					],
					"name": "MessageSet",
					"type": "event"
				},
				{
					"inputs": [],
					"name": "on",
					"outputs": [
						{
							"internalType": "int8",
							"name": "",
							"type": "int8"
						}
					],
					"stateMutability": "view",
					"type": "function"
				},
				{
					"inputs": [],
					"name": "readLed",
					"outputs": [
						{
							"internalType": "int8",
							"name": "",
							"type": "int8"
						}
					],
					"stateMutability": "view",
					"type": "function"
				},
				{
					"inputs": [
						{
							"internalType": "int8",
							"name": "newOn",
							"type": "int8"
						}
					],
					"name": "setLed",
					"outputs": [],
					"stateMutability": "payable",
					"type": "function"
				}
			],
			"devdoc": {
				"kind": "dev",
				"methods": {},
				"version": 1
			},
			"evm": {
				"assembly": "    /* \"IoT/iot.sol\":187:751  contract MessageContract {... */\n  mstore(0x40, 0x80)\n    /* \"IoT/iot.sol\":310:363  constructor(int8 newOn) {... */\n  callvalue\n  dup1\n  iszero\n  tag_1\n  jumpi\n  0x00\n  dup1\n  revert\ntag_1:\n  pop\n  mload(0x40)\n  sub(codesize, bytecodeSize)\n  dup1\n  bytecodeSize\n  dup4\n  codecopy\n  dup2\n  dup2\n  add\n  0x40\n  mstore\n  dup2\n  add\n  swap1\n  tag_2\n  swap2\n  swap1\n  tag_3\n  jump\t// in\ntag_2:\n    /* \"IoT/iot.sol\":350:355  newOn */\n  dup1\n    /* \"IoT/iot.sol\":345:347  on */\n  0x00\n  dup1\n    /* \"IoT/iot.sol\":345:355  on = newOn */\n  0x0100\n  exp\n  dup2\n  sload\n  dup2\n  0xff\n  mul\n  not\n  and\n  swap1\n  dup4\n  0x00\n  signextend\n  0xff\n  and\n  mul\n  or\n  swap1\n  sstore\n  pop\n    /* \"IoT/iot.sol\":310:363  constructor(int8 newOn) {... */\n  pop\n    /* \"IoT/iot.sol\":187:751  contract MessageContract {... */\n  jump(tag_6)\n    /* \"#utility.yul\":88:205   */\ntag_8:\n    /* \"#utility.yul\":197:198   */\n  0x00\n    /* \"#utility.yul\":194:195   */\n  dup1\n    /* \"#utility.yul\":187:199   */\n  revert\n    /* \"#utility.yul\":334:423   */\ntag_10:\n    /* \"#utility.yul\":368:375   */\n  0x00\n    /* \"#utility.yul\":411:416   */\n  dup2\n    /* \"#utility.yul\":408:409   */\n  0x00\n    /* \"#utility.yul\":397:417   */\n  signextend\n    /* \"#utility.yul\":386:417   */\n  swap1\n  pop\n    /* \"#utility.yul\":334:423   */\n  swap2\n  swap1\n  pop\n  jump\t// out\n    /* \"#utility.yul\":429:545   */\ntag_11:\n    /* \"#utility.yul\":499:520   */\n  tag_19\n    /* \"#utility.yul\":514:519   */\n  dup2\n    /* \"#utility.yul\":499:520   */\n  tag_10\n  jump\t// in\ntag_19:\n    /* \"#utility.yul\":492:497   */\n  dup2\n    /* \"#utility.yul\":489:521   */\n  eq\n    /* \"#utility.yul\":479:539   */\n  tag_20\n  jumpi\n    /* \"#utility.yul\":535:536   */\n  0x00\n    /* \"#utility.yul\":532:533   */\n  dup1\n    /* \"#utility.yul\":525:537   */\n  revert\n    /* \"#utility.yul\":479:539   */\ntag_20:\n    /* \"#utility.yul\":429:545   */\n  pop\n  jump\t// out\n    /* \"#utility.yul\":551:688   */\ntag_12:\n    /* \"#utility.yul\":605:610   */\n  0x00\n    /* \"#utility.yul\":636:642   */\n  dup2\n    /* \"#utility.yul\":630:643   */\n  mload\n    /* \"#utility.yul\":621:643   */\n  swap1\n  pop\n    /* \"#utility.yul\":652:682   */\n  tag_22\n    /* \"#utility.yul\":676:681   */\n  dup2\n    /* \"#utility.yul\":652:682   */\n  tag_11\n  jump\t// in\ntag_22:\n    /* \"#utility.yul\":551:688   */\n  swap3\n  swap2\n  pop\n  pop\n  jump\t// out\n    /* \"#utility.yul\":694:1039   */\ntag_3:\n    /* \"#utility.yul\":761:767   */\n  0x00\n    /* \"#utility.yul\":810:812   */\n  0x20\n    /* \"#utility.yul\":798:807   */\n  dup3\n    /* \"#utility.yul\":789:796   */\n  dup5\n    /* \"#utility.yul\":785:808   */\n  sub\n    /* \"#utility.yul\":781:813   */\n  slt\n    /* \"#utility.yul\":778:897   */\n  iszero\n  tag_24\n  jumpi\n    /* \"#utility.yul\":816:895   */\n  tag_25\n  tag_8\n  jump\t// in\ntag_25:\n    /* \"#utility.yul\":778:897   */\ntag_24:\n    /* \"#utility.yul\":936:937   */\n  0x00\n    /* \"#utility.yul\":961:1022   */\n  tag_26\n    /* \"#utility.yul\":1014:1021   */\n  dup5\n    /* \"#utility.yul\":1005:1011   */\n  dup3\n    /* \"#utility.yul\":994:1003   */\n  dup6\n    /* \"#utility.yul\":990:1012   */\n  add\n    /* \"#utility.yul\":961:1022   */\n  tag_12\n  jump\t// in\ntag_26:\n    /* \"#utility.yul\":951:1022   */\n  swap2\n  pop\n    /* \"#utility.yul\":907:1032   */\n  pop\n    /* \"#utility.yul\":694:1039   */\n  swap3\n  swap2\n  pop\n  pop\n  jump\t// out\n    /* \"IoT/iot.sol\":187:751  contract MessageContract {... */\ntag_6:\n  dataSize(sub_0)\n  dup1\n  dataOffset(sub_0)\n  0x00\n  codecopy\n  0x00\n  return\nstop\n\nsub_0: assembly {\n        /* \"IoT/iot.sol\":187:751  contract MessageContract {... */\n      mstore(0x40, 0x80)\n      jumpi(tag_1, lt(calldatasize, 0x04))\n      shr(0xe0, calldataload(0x00))\n      dup1\n      0x61df9af9\n      eq\n      tag_2\n      jumpi\n      dup1\n      0x67b7c034\n      eq\n      tag_3\n      jumpi\n      dup1\n      0xa5480959\n      eq\n      tag_4\n      jumpi\n    tag_1:\n      0x00\n      dup1\n      revert\n        /* \"IoT/iot.sol\":422:607  function setLed(int8 newOn) public payable {... */\n    tag_2:\n      tag_5\n      0x04\n      dup1\n      calldatasize\n      sub\n      dup2\n      add\n      swap1\n      tag_6\n      swap2\n      swap1\n      tag_7\n      jump\t// in\n    tag_6:\n      tag_8\n      jump\t// in\n    tag_5:\n      stop\n        /* \"IoT/iot.sol\":221:235  int8 public on */\n    tag_3:\n      callvalue\n      dup1\n      iszero\n      tag_9\n      jumpi\n      0x00\n      dup1\n      revert\n    tag_9:\n      pop\n      tag_10\n      tag_11\n      jump\t// in\n    tag_10:\n      mload(0x40)\n      tag_12\n      swap2\n      swap1\n      tag_13\n      jump\t// in\n    tag_12:\n      mload(0x40)\n      dup1\n      swap2\n      sub\n      swap1\n      return\n        /* \"IoT/iot.sol\":674:748  function readLed() public view returns (int8) {... */\n    tag_4:\n      callvalue\n      dup1\n      iszero\n      tag_14\n      jumpi\n      0x00\n      dup1\n      revert\n    tag_14:\n      pop\n      tag_15\n      tag_16\n      jump\t// in\n    tag_15:\n      mload(0x40)\n      tag_17\n      swap2\n      swap1\n      tag_13\n      jump\t// in\n    tag_17:\n      mload(0x40)\n      dup1\n      swap2\n      sub\n      swap1\n      return\n        /* \"IoT/iot.sol\":422:607  function setLed(int8 newOn) public payable {... */\n    tag_8:\n        /* \"IoT/iot.sol\":493:494  0 */\n      0x00\n        /* \"IoT/iot.sol\":484:489  newOn */\n      dup2\n        /* \"IoT/iot.sol\":484:494  newOn == 0 */\n      0x00\n      signextend\n      eq\n        /* \"IoT/iot.sol\":484:508  newOn == 0 || newOn == 1 */\n      dup1\n      tag_19\n      jumpi\n      pop\n        /* \"IoT/iot.sol\":507:508  1 */\n      0x01\n        /* \"IoT/iot.sol\":498:503  newOn */\n      dup2\n        /* \"IoT/iot.sol\":498:508  newOn == 1 */\n      0x00\n      signextend\n      eq\n        /* \"IoT/iot.sol\":484:508  newOn == 0 || newOn == 1 */\n    tag_19:\n        /* \"IoT/iot.sol\":476:533  require(newOn == 0 || newOn == 1, \"value must be 0 or 1\") */\n      tag_20\n      jumpi\n      mload(0x40)\n      0x08c379a000000000000000000000000000000000000000000000000000000000\n      dup2\n      mstore\n      0x04\n      add\n      tag_21\n      swap1\n      tag_22\n      jump\t// in\n    tag_21:\n      mload(0x40)\n      dup1\n      swap2\n      sub\n      swap1\n      revert\n    tag_20:\n        /* \"IoT/iot.sol\":549:554  newOn */\n      dup1\n        /* \"IoT/iot.sol\":544:546  on */\n      0x00\n      dup1\n        /* \"IoT/iot.sol\":544:554  on = newOn */\n      0x0100\n      exp\n      dup2\n      sload\n      dup2\n      0xff\n      mul\n      not\n      and\n      swap1\n      dup4\n      0x00\n      signextend\n      0xff\n      and\n      mul\n      or\n      swap1\n      sstore\n      pop\n        /* \"IoT/iot.sol\":581:591  msg.sender */\n      caller\n        /* \"IoT/iot.sol\":570:599  MessageSet(msg.sender, newOn) */\n      0xffffffffffffffffffffffffffffffffffffffff\n      and\n      0xd2a2e8bf95f0e9ffa5629056e3b32a9f89b0afc8f113effe8983febbbb5e2601\n        /* \"IoT/iot.sol\":593:598  newOn */\n      dup3\n        /* \"IoT/iot.sol\":570:599  MessageSet(msg.sender, newOn) */\n      mload(0x40)\n      tag_23\n      swap2\n      swap1\n      tag_13\n      jump\t// in\n    tag_23:\n      mload(0x40)\n      dup1\n      swap2\n      sub\n      swap1\n      log2\n        /* \"IoT/iot.sol\":422:607  function setLed(int8 newOn) public payable {... */\n      pop\n      jump\t// out\n        /* \"IoT/iot.sol\":221:235  int8 public on */\n    tag_11:\n      0x00\n      dup1\n      sload\n      swap1\n      0x0100\n      exp\n      swap1\n      div\n      0x00\n      signextend\n      dup2\n      jump\t// out\n        /* \"IoT/iot.sol\":674:748  function readLed() public view returns (int8) {... */\n    tag_16:\n        /* \"IoT/iot.sol\":714:718  int8 */\n      0x00\n        /* \"IoT/iot.sol\":738:740  on */\n      dup1\n      0x00\n      swap1\n      sload\n      swap1\n      0x0100\n      exp\n      swap1\n      div\n      0x00\n      signextend\n        /* \"IoT/iot.sol\":731:740  return on */\n      swap1\n      pop\n        /* \"IoT/iot.sol\":674:748  function readLed() public view returns (int8) {... */\n      swap1\n      jump\t// out\n        /* \"#utility.yul\":88:205   */\n    tag_26:\n        /* \"#utility.yul\":197:198   */\n      0x00\n        /* \"#utility.yul\":194:195   */\n      dup1\n        /* \"#utility.yul\":187:199   */\n      revert\n        /* \"#utility.yul\":334:423   */\n    tag_28:\n        /* \"#utility.yul\":368:375   */\n      0x00\n        /* \"#utility.yul\":411:416   */\n      dup2\n        /* \"#utility.yul\":408:409   */\n      0x00\n        /* \"#utility.yul\":397:417   */\n      signextend\n        /* \"#utility.yul\":386:417   */\n      swap1\n      pop\n        /* \"#utility.yul\":334:423   */\n      swap2\n      swap1\n      pop\n      jump\t// out\n        /* \"#utility.yul\":429:545   */\n    tag_29:\n        /* \"#utility.yul\":499:520   */\n      tag_41\n        /* \"#utility.yul\":514:519   */\n      dup2\n        /* \"#utility.yul\":499:520   */\n      tag_28\n      jump\t// in\n    tag_41:\n        /* \"#utility.yul\":492:497   */\n      dup2\n        /* \"#utility.yul\":489:521   */\n      eq\n        /* \"#utility.yul\":479:539   */\n      tag_42\n      jumpi\n        /* \"#utility.yul\":535:536   */\n      0x00\n        /* \"#utility.yul\":532:533   */\n      dup1\n        /* \"#utility.yul\":525:537   */\n      revert\n        /* \"#utility.yul\":479:539   */\n    tag_42:\n        /* \"#utility.yul\":429:545   */\n      pop\n      jump\t// out\n        /* \"#utility.yul\":551:684   */\n    tag_30:\n        /* \"#utility.yul\":594:599   */\n      0x00\n        /* \"#utility.yul\":632:638   */\n      dup2\n        /* \"#utility.yul\":619:639   */\n      calldataload\n        /* \"#utility.yul\":610:639   */\n      swap1\n      pop\n        /* \"#utility.yul\":648:678   */\n      tag_44\n        /* \"#utility.yul\":672:677   */\n      dup2\n        /* \"#utility.yul\":648:678   */\n      tag_29\n      jump\t// in\n    tag_44:\n        /* \"#utility.yul\":551:684   */\n      swap3\n      swap2\n      pop\n      pop\n      jump\t// out\n        /* \"#utility.yul\":690:1013   */\n    tag_7:\n        /* \"#utility.yul\":746:752   */\n      0x00\n        /* \"#utility.yul\":795:797   */\n      0x20\n        /* \"#utility.yul\":783:792   */\n      dup3\n        /* \"#utility.yul\":774:781   */\n      dup5\n        /* \"#utility.yul\":770:793   */\n      sub\n        /* \"#utility.yul\":766:798   */\n      slt\n        /* \"#utility.yul\":763:882   */\n      iszero\n      tag_46\n      jumpi\n        /* \"#utility.yul\":801:880   */\n      tag_47\n      tag_26\n      jump\t// in\n    tag_47:\n        /* \"#utility.yul\":763:882   */\n    tag_46:\n        /* \"#utility.yul\":921:922   */\n      0x00\n        /* \"#utility.yul\":946:996   */\n      tag_48\n        /* \"#utility.yul\":988:995   */\n      dup5\n        /* \"#utility.yul\":979:985   */\n      dup3\n        /* \"#utility.yul\":968:977   */\n      dup6\n        /* \"#utility.yul\":964:986   */\n      add\n        /* \"#utility.yul\":946:996   */\n      tag_30\n      jump\t// in\n    tag_48:\n        /* \"#utility.yul\":936:996   */\n      swap2\n      pop\n        /* \"#utility.yul\":892:1006   */\n      pop\n        /* \"#utility.yul\":690:1013   */\n      swap3\n      swap2\n      pop\n      pop\n      jump\t// out\n        /* \"#utility.yul\":1019:1128   */\n    tag_31:\n        /* \"#utility.yul\":1100:1121   */\n      tag_50\n        /* \"#utility.yul\":1115:1120   */\n      dup2\n        /* \"#utility.yul\":1100:1121   */\n      tag_28\n      jump\t// in\n    tag_50:\n        /* \"#utility.yul\":1095:1098   */\n      dup3\n        /* \"#utility.yul\":1088:1122   */\n      mstore\n        /* \"#utility.yul\":1019:1128   */\n      pop\n      pop\n      jump\t// out\n        /* \"#utility.yul\":1134:1344   */\n    tag_13:\n        /* \"#utility.yul\":1221:1225   */\n      0x00\n        /* \"#utility.yul\":1259:1261   */\n      0x20\n        /* \"#utility.yul\":1248:1257   */\n      dup3\n        /* \"#utility.yul\":1244:1262   */\n      add\n        /* \"#utility.yul\":1236:1262   */\n      swap1\n      pop\n        /* \"#utility.yul\":1272:1337   */\n      tag_52\n        /* \"#utility.yul\":1334:1335   */\n      0x00\n        /* \"#utility.yul\":1323:1332   */\n      dup4\n        /* \"#utility.yul\":1319:1336   */\n      add\n        /* \"#utility.yul\":1310:1316   */\n      dup5\n        /* \"#utility.yul\":1272:1337   */\n      tag_31\n      jump\t// in\n    tag_52:\n        /* \"#utility.yul\":1134:1344   */\n      swap3\n      swap2\n      pop\n      pop\n      jump\t// out\n        /* \"#utility.yul\":1350:1519   */\n    tag_32:\n        /* \"#utility.yul\":1434:1445   */\n      0x00\n        /* \"#utility.yul\":1468:1474   */\n      dup3\n        /* \"#utility.yul\":1463:1466   */\n      dup3\n        /* \"#utility.yul\":1456:1475   */\n      mstore\n        /* \"#utility.yul\":1508:1512   */\n      0x20\n        /* \"#utility.yul\":1503:1506   */\n      dup3\n        /* \"#utility.yul\":1499:1513   */\n      add\n        /* \"#utility.yul\":1484:1513   */\n      swap1\n      pop\n        /* \"#utility.yul\":1350:1519   */\n      swap3\n      swap2\n      pop\n      pop\n      jump\t// out\n        /* \"#utility.yul\":1525:1695   */\n    tag_33:\n        /* \"#utility.yul\":1665:1687   */\n      0x76616c7565206d7573742062652030206f722031000000000000000000000000\n        /* \"#utility.yul\":1661:1662   */\n      0x00\n        /* \"#utility.yul\":1653:1659   */\n      dup3\n        /* \"#utility.yul\":1649:1663   */\n      add\n        /* \"#utility.yul\":1642:1688   */\n      mstore\n        /* \"#utility.yul\":1525:1695   */\n      pop\n      jump\t// out\n        /* \"#utility.yul\":1701:2067   */\n    tag_34:\n        /* \"#utility.yul\":1843:1846   */\n      0x00\n        /* \"#utility.yul\":1864:1931   */\n      tag_56\n        /* \"#utility.yul\":1928:1930   */\n      0x14\n        /* \"#utility.yul\":1923:1926   */\n      dup4\n        /* \"#utility.yul\":1864:1931   */\n      tag_32\n      jump\t// in\n    tag_56:\n        /* \"#utility.yul\":1857:1931   */\n      swap2\n      pop\n        /* \"#utility.yul\":1940:2033   */\n      tag_57\n        /* \"#utility.yul\":2029:2032   */\n      dup3\n        /* \"#utility.yul\":1940:2033   */\n      tag_33\n      jump\t// in\n    tag_57:\n        /* \"#utility.yul\":2058:2060   */\n      0x20\n        /* \"#utility.yul\":2053:2056   */\n      dup3\n        /* \"#utility.yul\":2049:2061   */\n      add\n        /* \"#utility.yul\":2042:2061   */\n      swap1\n      pop\n        /* \"#utility.yul\":1701:2067   */\n      swap2\n      swap1\n      pop\n      jump\t// out\n        /* \"#utility.yul\":2073:2492   */\n    tag_22:\n        /* \"#utility.yul\":2239:2243   */\n      0x00\n        /* \"#utility.yul\":2277:2279   */\n      0x20\n        /* \"#utility.yul\":2266:2275   */\n      dup3\n        /* \"#utility.yul\":2262:2280   */\n      add\n        /* \"#utility.yul\":2254:2280   */\n      swap1\n      pop\n        /* \"#utility.yul\":2326:2335   */\n      dup2\n        /* \"#utility.yul\":2320:2324   */\n      dup2\n        /* \"#utility.yul\":2316:2336   */\n      sub\n        /* \"#utility.yul\":2312:2313   */\n      0x00\n        /* \"#utility.yul\":2301:2310   */\n      dup4\n        /* \"#utility.yul\":2297:2314   */\n      add\n        /* \"#utility.yul\":2290:2337   */\n      mstore\n        /* \"#utility.yul\":2354:2485   */\n      tag_59\n        /* \"#utility.yul\":2480:2484   */\n      dup2\n        /* \"#utility.yul\":2354:2485   */\n      tag_34\n      jump\t// in\n    tag_59:\n        /* \"#utility.yul\":2346:2485   */\n      swap1\n      pop\n        /* \"#utility.yul\":2073:2492   */\n      swap2\n      swap1\n      pop\n      jump\t// out\n\n    auxdata: 0xa2646970667358221220660dec4e0c859c6451597a3c61a4d1597130cb4a5a33ecbea34f6d9be6c5d7cd64736f6c63430008180033\n}\n",
				"bytecode": {
					"linkReferences": {},
					"object": "608060405234801561000f575f80fd5b506040516103833803806103838339818101604052810190610031919061008b565b805f806101000a81548160ff02191690835f0b60ff160217905550506100b6565b5f80fd5b5f815f0b9050919050565b61006a81610056565b8114610074575f80fd5b50565b5f8151905061008581610061565b92915050565b5f602082840312156100a05761009f610052565b5b5f6100ad84828501610077565b91505092915050565b6102c0806100c35f395ff3fe608060405260043610610033575f3560e01c806361df9af91461003757806367b7c03414610053578063a54809591461007d575b5f80fd5b610051600480360381019061004c91906101bf565b6100a7565b005b34801561005e575f80fd5b50610067610164565b60405161007491906101f9565b60405180910390f35b348015610088575f80fd5b50610091610173565b60405161009e91906101f9565b60405180910390f35b5f815f0b14806100b957506001815f0b145b6100f8576040517f08c379a00000000000000000000000000000000000000000000000000000000081526004016100ef9061026c565b60405180910390fd5b805f806101000a81548160ff02191690835f0b60ff1602179055503373ffffffffffffffffffffffffffffffffffffffff167fd2a2e8bf95f0e9ffa5629056e3b32a9f89b0afc8f113effe8983febbbb5e26018260405161015991906101f9565b60405180910390a250565b5f8054906101000a90045f0b81565b5f805f9054906101000a90045f0b905090565b5f80fd5b5f815f0b9050919050565b61019e8161018a565b81146101a8575f80fd5b50565b5f813590506101b981610195565b92915050565b5f602082840312156101d4576101d3610186565b5b5f6101e1848285016101ab565b91505092915050565b6101f38161018a565b82525050565b5f60208201905061020c5f8301846101ea565b92915050565b5f82825260208201905092915050565b7f76616c7565206d7573742062652030206f7220310000000000000000000000005f82015250565b5f610256601483610212565b915061026182610222565b602082019050919050565b5f6020820190508181035f8301526102838161024a565b905091905056fea2646970667358221220660dec4e0c859c6451597a3c61a4d1597130cb4a5a33ecbea34f6d9be6c5d7cd64736f6c63430008180033",
					"opcodes": "PUSH1 0x80 PUSH1 0x40 MSTORE CALLVALUE DUP1 ISZERO PUSH2 0xF JUMPI PUSH0 DUP1 REVERT JUMPDEST POP PUSH1 0x40 MLOAD PUSH2 0x383 CODESIZE SUB DUP1 PUSH2 0x383 DUP4 CODECOPY DUP2 DUP2 ADD PUSH1 0x40 MSTORE DUP2 ADD SWAP1 PUSH2 0x31 SWAP2 SWAP1 PUSH2 0x8B JUMP JUMPDEST DUP1 PUSH0 DUP1 PUSH2 0x100 EXP DUP2 SLOAD DUP2 PUSH1 0xFF MUL NOT AND SWAP1 DUP4 PUSH0 SIGNEXTEND PUSH1 0xFF AND MUL OR SWAP1 SSTORE POP POP PUSH2 0xB6 JUMP JUMPDEST PUSH0 DUP1 REVERT JUMPDEST PUSH0 DUP2 PUSH0 SIGNEXTEND SWAP1 POP SWAP2 SWAP1 POP JUMP JUMPDEST PUSH2 0x6A DUP2 PUSH2 0x56 JUMP JUMPDEST DUP2 EQ PUSH2 0x74 JUMPI PUSH0 DUP1 REVERT JUMPDEST POP JUMP JUMPDEST PUSH0 DUP2 MLOAD SWAP1 POP PUSH2 0x85 DUP2 PUSH2 0x61 JUMP JUMPDEST SWAP3 SWAP2 POP POP JUMP JUMPDEST PUSH0 PUSH1 0x20 DUP3 DUP5 SUB SLT ISZERO PUSH2 0xA0 JUMPI PUSH2 0x9F PUSH2 0x52 JUMP JUMPDEST JUMPDEST PUSH0 PUSH2 0xAD DUP5 DUP3 DUP6 ADD PUSH2 0x77 JUMP JUMPDEST SWAP2 POP POP SWAP3 SWAP2 POP POP JUMP JUMPDEST PUSH2 0x2C0 DUP1 PUSH2 0xC3 PUSH0 CODECOPY PUSH0 RETURN INVALID PUSH1 0x80 PUSH1 0x40 MSTORE PUSH1 0x4 CALLDATASIZE LT PUSH2 0x33 JUMPI PUSH0 CALLDATALOAD PUSH1 0xE0 SHR DUP1 PUSH4 0x61DF9AF9 EQ PUSH2 0x37 JUMPI DUP1 PUSH4 0x67B7C034 EQ PUSH2 0x53 JUMPI DUP1 PUSH4 0xA5480959 EQ PUSH2 0x7D JUMPI JUMPDEST PUSH0 DUP1 REVERT JUMPDEST PUSH2 0x51 PUSH1 0x4 DUP1 CALLDATASIZE SUB DUP2 ADD SWAP1 PUSH2 0x4C SWAP2 SWAP1 PUSH2 0x1BF JUMP JUMPDEST PUSH2 0xA7 JUMP JUMPDEST STOP JUMPDEST CALLVALUE DUP1 ISZERO PUSH2 0x5E JUMPI PUSH0 DUP1 REVERT JUMPDEST POP PUSH2 0x67 PUSH2 0x164 JUMP JUMPDEST PUSH1 0x40 MLOAD PUSH2 0x74 SWAP2 SWAP1 PUSH2 0x1F9 JUMP JUMPDEST PUSH1 0x40 MLOAD DUP1 SWAP2 SUB SWAP1 RETURN JUMPDEST CALLVALUE DUP1 ISZERO PUSH2 0x88 JUMPI PUSH0 DUP1 REVERT JUMPDEST POP PUSH2 0x91 PUSH2 0x173 JUMP JUMPDEST PUSH1 0x40 MLOAD PUSH2 0x9E SWAP2 SWAP1 PUSH2 0x1F9 JUMP JUMPDEST PUSH1 0x40 MLOAD DUP1 SWAP2 SUB SWAP1 RETURN JUMPDEST PUSH0 DUP2 PUSH0 SIGNEXTEND EQ DUP1 PUSH2 0xB9 JUMPI POP PUSH1 0x1 DUP2 PUSH0 SIGNEXTEND EQ JUMPDEST PUSH2 0xF8 JUMPI PUSH1 0x40 MLOAD PUSH32 0x8C379A000000000000000000000000000000000000000000000000000000000 DUP2 MSTORE PUSH1 0x4 ADD PUSH2 0xEF SWAP1 PUSH2 0x26C JUMP JUMPDEST PUSH1 0x40 MLOAD DUP1 SWAP2 SUB SWAP1 REVERT JUMPDEST DUP1 PUSH0 DUP1 PUSH2 0x100 EXP DUP2 SLOAD DUP2 PUSH1 0xFF MUL NOT AND SWAP1 DUP4 PUSH0 SIGNEXTEND PUSH1 0xFF AND MUL OR SWAP1 SSTORE POP CALLER PUSH20 0xFFFFFFFFFFFFFFFFFFFFFFFFFFFFFFFFFFFFFFFF AND PUSH32 0xD2A2E8BF95F0E9FFA5629056E3B32A9F89B0AFC8F113EFFE8983FEBBBB5E2601 DUP3 PUSH1 0x40 MLOAD PUSH2 0x159 SWAP2 SWAP1 PUSH2 0x1F9 JUMP JUMPDEST PUSH1 0x40 MLOAD DUP1 SWAP2 SUB SWAP1 LOG2 POP JUMP JUMPDEST PUSH0 DUP1 SLOAD SWAP1 PUSH2 0x100 EXP SWAP1 DIV PUSH0 SIGNEXTEND DUP2 JUMP JUMPDEST PUSH0 DUP1 PUSH0 SWAP1 SLOAD SWAP1 PUSH2 0x100 EXP SWAP1 DIV PUSH0 SIGNEXTEND SWAP1 POP SWAP1 JUMP JUMPDEST PUSH0 DUP1 REVERT JUMPDEST PUSH0 DUP2 PUSH0 SIGNEXTEND SWAP1 POP SWAP2 SWAP1 POP JUMP JUMPDEST PUSH2 0x19E DUP2 PUSH2 0x18A JUMP JUMPDEST DUP2 EQ PUSH2 0x1A8 JUMPI PUSH0 DUP1 REVERT JUMPDEST POP JUMP JUMPDEST PUSH0 DUP2 CALLDATALOAD SWAP1 POP PUSH2 0x1B9 DUP2 PUSH2 0x195 JUMP JUMPDEST SWAP3 SWAP2 POP POP JUMP JUMPDEST PUSH0 PUSH1 0x20 DUP3 DUP5 SUB SLT ISZERO PUSH2 0x1D4 JUMPI PUSH2 0x1D3 PUSH2 0x186 JUMP JUMPDEST JUMPDEST PUSH0 PUSH2 0x1E1 DUP5 DUP3 DUP6 ADD PUSH2 0x1AB JUMP JUMPDEST SWAP2 POP POP SWAP3 SWAP2 POP POP JUMP JUMPDEST PUSH2 0x1F3 DUP2 PUSH2 0x18A JUMP JUMPDEST DUP3 MSTORE POP POP JUMP JUMPDEST PUSH0 PUSH1 0x20 DUP3 ADD SWAP1 POP PUSH2 0x20C PUSH0 DUP4 ADD DUP5 PUSH2 0x1EA JUMP JUMPDEST SWAP3 SWAP2 POP POP JUMP JUMPDEST PUSH0 DUP3 DUP3 MSTORE PUSH1 0x20 DUP3 ADD SWAP1 POP SWAP3 SWAP2 POP POP JUMP JUMPDEST PUSH32 0x76616C7565206D7573742062652030206F722031000000000000000000000000 PUSH0 DUP3 ADD MSTORE POP JUMP JUMPDEST PUSH0 PUSH2 0x256 PUSH1 0x14 DUP4 PUSH2 0x212 JUMP JUMPDEST SWAP2 POP PUSH2 0x261 DUP3 PUSH2 0x222 JUMP JUMPDEST PUSH1 0x20 DUP3 ADD SWAP1 POP SWAP2 SWAP1 POP JUMP JUMPDEST PUSH0 PUSH1 0x20 DUP3 ADD SWAP1 POP DUP2 DUP2 SUB PUSH0 DUP4 ADD MSTORE PUSH2 0x283 DUP2 PUSH2 0x24A JUMP JUMPDEST SWAP1 POP SWAP2 SWAP1 POP JUMP INVALID LOG2 PUSH5 0x6970667358 0x22 SLT KECCAK256 PUSH7 0xDEC4E0C859C64 MLOAD MSIZE PUSH27 0x3C61A4D1597130CB4A5A33ECBEA34F6D9BE6C5D7CD64736F6C6343 STOP ADDMOD XOR STOP CALLER "
				},
				"gasEstimates": {
					"creation": {
						"codeDepositCost": "140800",
						"executionCost": "infinite",
						"totalCost": "infinite"
					},
					"external": {
						"on()": "2465",
						"readLed()": "2497",
						"setLed(int8)": "infinite"
					}
				},
				"methodIdentifiers": {
					"on()": "67b7c034",
					"readLed()": "a5480959",
					"setLed(int8)": "61df9af9"
				}
			},
			"storageLayout": {
				"storage": [
					{
						"astId": 3,
						"contract": "IoT/iot.sol:MessageContract",
						"label": "on",
						"offset": 0,
						"slot": "0",
						"type": "t_int8"
					}
				],
				"types": {
					"t_int8": {
						"encoding": "inplace",
						"label": "int8",
						"numberOfBytes": "1"
					}
				}
			},
			"userdoc": {
				"kind": "user",
				"methods": {},
				"version": 1
			}
		}
	}
}