{
	"data": {
		"bytecode": {
			"linkReferences": {},
			"object": "6080604052348015600e575f80fd5b5060fa8061001b5f395ff3fe6080604052348015600e575f80fd5b50600436106026575f3560e01c806366c7d3ed14602a575b5f80fd5b60306032565b005b7f7456c74e97c7f392f1054515ec2bbdfe7fa71f006d00d93807569694ff4580cf60156040516060919060ad565b60405180910390a1565b5f819050919050565b5f819050919050565b5f819050919050565b5f60996095609184606a565b607c565b6073565b9050919050565b60a7816085565b82525050565b5f60208201905060be5f83018460a0565b9291505056fea26469706673582212202b429572e36b374206295333bee9aba08f41cf61d6e6981a6e904b3889e2206664736f6c63430008190033",
			"opcodes": "PUSH1 0x80 PUSH1 0x40 MSTORE CALLVALUE DUP1 ISZERO PUSH1 0xE JUMPI PUSH0 DUP1 REVERT JUMPDEST POP PUSH1 0xFA DUP1 PUSH2 0x1B PUSH0 CODECOPY PUSH0 RETURN INVALID PUSH1 0x80 PUSH1 0x40 MSTORE CALLVALUE DUP1 ISZERO PUSH1 0xE JUMPI PUSH0 DUP1 REVERT JUMPDEST POP PUSH1 0x4 CALLDATASIZE LT PUSH1 0x26 JUMPI PUSH0 CALLDATALOAD PUSH1 0xE0 SHR DUP1 PUSH4 0x66C7D3ED EQ PUSH1 0x2A JUMPI JUMPDEST PUSH0 DUP1 REVERT JUMPDEST PUSH1 0x30 PUSH1 0x32 JUMP JUMPDEST STOP JUMPDEST PUSH32 0x7456C74E97C7F392F1054515EC2BBDFE7FA71F006D00D93807569694FF4580CF PUSH1 0x15 PUSH1 0x40 MLOAD PUSH1 0x60 SWAP2 SWAP1 PUSH1 0xAD JUMP JUMPDEST PUSH1 0x40 MLOAD DUP1 SWAP2 SUB SWAP1 LOG1 JUMP JUMPDEST PUSH0 DUP2 SWAP1 POP SWAP2 SWAP1 POP JUMP JUMPDEST PUSH0 DUP2 SWAP1 POP SWAP2 SWAP1 POP JUMP JUMPDEST PUSH0 DUP2 SWAP1 POP SWAP2 SWAP1 POP JUMP JUMPDEST PUSH0 PUSH1 0x99 PUSH1 0x95 PUSH1 0x91 DUP5 PUSH1 0x6A JUMP JUMPDEST PUSH1 0x7C JUMP JUMPDEST PUSH1 0x73 JUMP JUMPDEST SWAP1 POP SWAP2 SWAP1 POP JUMP JUMPDEST PUSH1 0xA7 DUP2 PUSH1 0x85 JUMP JUMPDEST DUP3 MSTORE POP POP JUMP JUMPDEST PUSH0 PUSH1 0x20 DUP3 ADD SWAP1 POP PUSH1 0xBE PUSH0 DUP4 ADD DUP5 PUSH1 0xA0 JUMP JUMPDEST SWAP3 SWAP2 POP POP JUMP INVALID LOG2 PUSH5 0x6970667358 0x22 SLT KECCAK256 0x2B TIMESTAMP SWAP6 PUSH19 0xE36B374206295333BEE9ABA08F41CF61D6E698 BYTE PUSH15 0x904B3889E2206664736F6C63430008 NOT STOP CALLER "
		},
		"gasEstimates": {
			"creation": {
				"codeDepositCost": "50000",
				"executionCost": "97",
				"totalCost": "50097"
			},
			"external": {
				"testEv()": "1435"
			}
		},
		"methodIdentifiers": {
			"testEv()": "66c7d3ed"
		}
	},
	"abi": [
		{
			"anonymous": false,
			"inputs": [
				{
					"indexed": false,
					"internalType": "uint256",
					"name": "num",
					"type": "uint256"
				}
			],
			"name": "testt",
			"type": "event"
		},
		{
			"inputs": [],
			"name": "testEv",
			"outputs": [],
			"stateMutability": "nonpayable",
			"type": "function"
		}
	]
}